:100000000C943E000C945B000C945B000C945B0021
:100010000C945B000C945B000C945B000C945B00F4
:100020000C945B000C945B000C945B000C945B00E4
:100030000C945B000C945B000C945B000C945B00D4
:100040000C946B000C945B000C945B000C945B00B4
:100050000C945B000C945B000C945B000C945B00B4
:100060000C945B000C945B000C945B000C945B00A4
:100070000C945B000C945B000C945B0011241FBE7D
:10008000CFEFD8E0DEBFCDBF11E0A0E0B1E0E0E30C
:10009000FEE002C005900D92AE31B107D9F711E034
:1000A000AEE1B1E001C01D92A237B107E1F70E94B5
:1000B000D6060C9416070C94000088E087BDEEE687
:1000C000F0E080818260808385B5856085BD84B5E0
:1000D000826084BD08951F920F920FB60F92112473
:1000E0002F933F938F939F938091210190912201B1
:1000F000019690932201809321012091000130917B
:1001000001018217930738F0109222011092210109
:1001100081E08093200180911E0190911F01019642
:1001200090931F0180931E019F918F913F912F917A
:100130000F900FBE0F901F90189588E087BD08950F
:1001400000E80093610000E00093610000E8009384
:10015000550000E8009355000000000085B780615D
:1001600085BF08957F939F9372B1982F90957923BF
:1001700072B975B1962F9095792375B9982F71B191
:10018000792B71B974B1962F792B74B9942F9095FE
:1001900078B1792378B977B1942F792B77B92998E9
:1001A000219A9F917F9108957F939F9374B170934B
:1001B00067017093710171B170936A0170936B0163
:1001C000782F709590917101972390937101762FFC
:1001D000709590916B01972390936B018827709194
:1001E0006B0171B99F917F91089544B986B9E1B8C7
:1001F00021B904B986B90895299A0895299870916A
:100200006A0171B9089580E060E04AE023E00E944D
:10021000A40281E060E04AE023E00E94A40282E0C0
:1002200060E04AE023E00E94A40283E060E04AE04C
:1002300023E00E94A4020E94E00182E08093320148
:1002400084E18093350195E090933601109234015A
:1002500080933301E2E3F1E081E082931682109211
:1002600039011092380178940895809120018823F3
:10027000A1F01092200180911E0190911F010E9417
:100280002A029093240180932301807091709093AF
:10029000260180932501009771F70895A0E0B0E052
:1002A000E4E5F1E00C94E806C82F162FF89480914D
:1002B00064008E7F80936400EC2FE695E695F0E075
:1002C000EE0FFF1FDF01AE5FBE4F8C9180937C006D
:1002D00080916400816080936400DF01AB5FBE4F5A
:1002E000ED5FFE4F8C9160810E94D400F82ED0E02B
:1002F000FE01E75EFE4FB080DD24CC24C3941FC016
:10030000812F6F2D4091710120916B010091670148
:10031000E0906A010E94F5008FB790916801892BE7
:100320008FBF809118018F5F80931801823030F069
:10033000823021F0833011F0C0921801D394F894E8
:10034000DB14F1F60E94FC001092850010928400EC
:10035000B59A00B605FE19C08FB790916801892B38
:100360008FBF08C0809184009091850020E280308A
:10037000920790F4B59BF6CF80918600909187000C
:10038000CC0FDD1FC65CDE4F0DC0CC0FDD1FC65C81
:10039000DE4F81E090E006C0CC0FDD1FC65CDE4F73
:1003A00080E090E2998388830E94FE008FB790914D
:1003B0006801892B8FBFCDB7DEB7E9E00C94040745
:1003C000CF93C0E004C08C2F0E942F03CF5F809199
:1003D0004E01C817C0F310922A01109229010E9401
:1003E0000206CF910895FC0181E290E09183808321
:1003F00084E290E09383828380E095E09583848318
:100400000895CF93C0E004C08C2F0E942F03CF5FCC
:1004100080914E01C817C0F3CF91089510924E01FC
:1004200084E08093320184E18093350195E09093DC
:1004300036011092340180933301E2E3F1E081E070
:10044000829383E086830E946406109239011092A1
:10045000380108951F93CF93DF9310924C011092AF
:100460004B014091290150912A0190932A018093D8
:10047000290120912B0130912C01241B350B280FD1
:10048000391FC0E003C0285C3040CF5F283C3105F5
:10049000D0F730932C0120932B0180914D018823BC
:1004A00041F08C1718F410924D0103C08C1B8093FF
:1004B0004D010E946E06E0913801F09139013097AC
:1004C00009F0099510E0D0E006C08D2F6C2F0E9436
:1004D0004403182BDF5F50914E01D517B0F3112361
:1004E00049F080914B0190914C01916090934C01A7
:1004F00080934B0110924A01AFE4B1E040E081E00B
:1005000090E018C02C91287199F0E42FE695E695BB
:10051000E695F0E0E65CFE4F242F2770BC0102C098
:10052000660F771F2A95E2F79B013089322B308BBB
:100530004F5F1696451731F780914B0190914C0112
:10054000DF91CF911F91089590914E01A92FB0E0B6
:10055000FD01EE0FFF1FEA0FFB1FEE0FFF1FE15B18
:10056000FE4F4383677085832370660F660F660FA7
:10057000262B24839F5F90934E0108951F93CF9362
:10058000DF93C82FD0E0FE01EE0FFF1FEC0FFD1F21
:10059000EE0FFF1FE15BFE4F9581238130E000905D
:1005A000310102C0359527950A94E2F7122F2430C5
:1005B00008F414E020914E01821768F5892F0E94FB
:1005C000EC05412F50E016951695212F30E0241BA5
:1005D000350B2817390764F4FE01EE0FFF1FEC0FEF
:1005E000FD1FEE0FFF1FE15BFE4F24812B7F248355
:1005F000509541955F4F481759077CF0FE01EE0F6B
:10060000FF1FEC0FFD1FEE0FFF1FE15BFE4F24816C
:100610002460248302C080E090E0DF91CF911F919D
:10062000089590E0FC01EE0FFF1FE80FF91FEE0F99
:10063000FF1FE15BFE4F258182E0808380914B01AB
:1006400090914C01826090934C0180934B011282F7
:10065000E22FF0E0E35DFE4F80E880830895CF93C2
:10066000C82F0E9411038C2F90E0FC01EE0FFF1F9A
:10067000E80FF91FEE0FFF1FE15BFE4F81E0808363
:100680008FE08183CF9108952F923F924F925F9296
:100690006F927F928F929F92BF92CF92DF92EF9252
:1006A000FF920F931F93CF93DF930F92CDB7DEB7D7
:1006B000082F162F0E94BE024C01C02EDD24B60169
:1006C000660F771FFB01EC0DFD1DEE0FFF1FE15BB9
:1006D000FE4F2481438150E0822F837090E0019689
:1006E000FA0102C0F595E7958A95E2F7CF01E2306D
:1006F00008F482E0DA01A81BB109FB01EC0DFD1D35
:10070000EE0FFF1FE15BFE4F8081843009F4E4C0EF
:10071000853030F4813071F0823009F049C261C017
:10072000803109F479C1803209F418C2883009F0A7
:100730003FC2DBC140914B0150914C01CA01926014
:1007400090934C0180934B018581618190E06A30E8
:1007500080F0FC01EE0FFF1FEE5BFE4FDC01AA0FE5
:10076000BB1FA65CBE4F8D919C9111979183808396
:100770001DC0DC01AA0FBB1FAE5BBE4F2D913C918B
:100780001197FC01EE0FFF1FE65CFE4F8081918107
:100790008217930718F42150304005C028173907F5
:1007A00058F42F5F3F4F11963C932E934860526050
:1007B00050934C0140934B016150F601EE0FFF1F27
:1007C000EC0DFD1DEE0FFF1FE15BFE4F6183662305
:1007D00019F4802F0E9411038091330180934D0101
:1007E000DFC122FF08C0A581B0E0A35DBE4F1C920F
:1007F00080E28083CCC1C40197FE02C080E090E01B
:100800008417950768F0F601EE0FFF1FEC0DFD1D34
:10081000EE0FFF1FE15BFE4F84E080831282C2C1B6
:10082000112309F4C5C180914D01882309F0C0C18D
:10083000F601EE0FFF1FEC0DFD1DEE0FFF1FE15B3C
:10084000FE4F258130E0D901AA0FBB1FAE5BBE4F22
:100850008D919C911197F901EE0FFF1FE65CFE4F01
:1008600040815181F901E35DFE4F8417950768F4DB
:100870002081210F2083309136013058231708F44E
:1008800097C120E82083019610C048175907D0F47B
:100890002081211B208330E840913501532F541BC8
:1008A000521708F485C13083019711969C938E935B
:1008B00080914B0190914C01886090934C01809302
:1008C0004B0176C18081813810F081508083808116
:1008D00087FD6EC18F5F4EC1C40197FE02C080E0EC
:1008E00090E08417950708F447C180913301809305
:1008F0004D01F601EE0FFF1FEC0DFD1DEE0FFF1F6A
:10090000E15BFE4F82818F5F8283848190E08873F8
:100910009070A3E096958795AA95E1F7B82E882365
:10092000D9F54EC01017B1F1812F90E01C01220CB7
:10093000331C280E391E220C331C6FE471E0260E86
:10094000371EF101848190E08873907053E0969592
:1009500087955A95E1F7B816E9F4812F29830E940B
:10096000BE02F1013381AC01431B5109F2018081C8
:10097000B401681B710929816417750714F4F30128
:1009800007C0F1018081803111F0883019F4F7013E
:10099000108221E01F5F0DC020E010E083E0482EB0
:1009A000512C4E0E5F1E7F0162E070E0E60EF71ED6
:1009B000370180914E01181708F4B4CF222379F43F
:1009C00080913201882359F080914B0190914C0124
:1009D000986090934C0180934B0181E001C080E0CE
:1009E000F601EE0FFF1FEC0DFD1DEE0FFF1FE15B8B
:1009F000FE4F228190913201291708F4DAC020912C
:100A00004B0130914C01236030934C0120934B01FA
:100A100090E190831182CDC040914B0150914C01E7
:100A200022FF0EC0A581B0E0A35DBE4F80E88C938D
:100A300080E28083506150934C0140934B014DC044
:100A4000C40197FE02C080E090E09601220F331FA0
:100A50008A179B0778F42C0D3D1D220F331F215B55
:100A60003E4F88E0F901808380914B0190914C01C9
:100A700094602FC0CA01816090934C0180934B0118
:100A8000F901EC0DFD1DEE0FFF1FE15BFE4F8281B2
:100A900090913201891710F48F5F82839091340115
:100AA0009923E9F0F601EE0FFF1FEC0DFD1DEE0F8F
:100AB000FF1FE15BFE4F8181891718F4810F81834D
:100AC0000EC0802F0E942F0380914B0190914C010A
:100AD000926090934C0180934B0181E001C080E0D3
:100AE0009091330190934D0164C0809133018093C4
:100AF0004D018281882309F43FC0C40197FE02C0E2
:100B000080E090E020914B0130914C01A817B9078B
:100B100090F4F601EE0FFF1FEC0DFD1DEE0FFF1F11
:100B2000E15BFE4F80E18083216030934C01209394
:100B30004B0180E006C0346030934C0120934B01A0
:100B400081E0F601EE0FFF1FEC0DFD1DEE0FFF1F04
:100B5000E15BFE4F9281915092832BC0A581B0E062
:100B6000A35DBE4F8C918F5F8C9322FD09C087FFE0
:100B700003C080E180831CC0802F0E94110318C035
:100B800090913701891770F0802F0E942F03809178
:100B90004B0190914C01906190934C0180934B01DB
:100BA00081E007C080914B0190914C019460F4CF9B
:100BB00080E00F90DF91CF911F910F91FF90EF9008
:100BC000DF90CF90BF909F908F907F906F905F90BD
:100BD0004F903F902F90089590E0FC0134962AE3C7
:100BE00031E0EE0FFF1FE20FF31FDC01AA0FBB1F66
:100BF000A20FB31F808191812D913C911197821B8F
:100C0000930B08950F93CF93DF9381E080931801A6
:100C100010926C0110926D0110926E0110926F0192
:100C20001092700130914E01C4E5D1E020E061E006
:100C300070E038C0E8818E2F8695869590E0880F09
:100C4000991FDC01AC5FBE4FAB010C9002C0440F9A
:100C5000551F0A94E2F750916C01542B50936C018C
:100C60008E5F9E4FAB01DC010C9002C0440F551FFC
:100C70000A94E2F7CA0190916D01982B90936D014F
:100C8000E370F0E0EE0FFF1FEE0FFF1FEA5FFE4F75
:100C9000A381B0E0A459BE4F8C919281892B8C9393
:100CA0002F5F2696231731F680916D0160916C01BC
:100CB00040916E0120916F01009170010E94B2007D
:100CC000DF91CF910F91089580E480931901809373
:100CD0001A0180931B0180931C010895A0E0B0E0ED
:100CE000E4E7F6E00C94E7068FB78078809368011C
:100CF000D0917B0010B700918000F0908100E6B2A7
:100D0000A0908400B0908500D0906400C0907C00DA
:100D100080E480937B0084E080BF1092800081E8B3
:100D200080938100F894C0E023C08C2F90E0FC01F8
:100D3000EE0FFF1FE80FF91FEE0FFF1FE15BFE4FE5
:100D40008581A82FA370B0E0AA0FBB1FAA0FBB1FFD
:100D5000AA5FBE4FED91FC911197309719F0129652
:100D60006C9109958FB790916801892B8FBFCF5FE8
:100D700080914E01C817C8F2D0937B0010BF00933A
:100D80008000F0928100E6BAB0928500A0928400C3
:100D9000D0926400C0927C008FB790916801892B3B
:100DA0008FBFCDB7DEB7EAE00C9403070E94A00026
:100DB0000E945D000E9403010E943501FDCF2F9229
:100DC0003F924F925F926F927F928F929F92AF92DB
:100DD000BF92CF92DF92EF92FF920F931F93CF9328
:100DE000DF93CDB7DEB7CA1BDB0B0FB6F894DEBFBF
:100DF0000FBECDBF09942A88398848885F846E84E5
:100E00007D848C849B84AA84B984C884DF80EE802E
:100E1000FD800C811B81AA81B981CE0FD11D0FB637
:100E2000F894DEBF0FBECDBFED010895F894FFCF5B
:100E30003200000100014E0104024E0108024E0181
:0E0E400010024E0120023A01014040404000E5
:00000001FF
