:100000000C94FE000C941B010C941B010C941B011E
:100010000C941B010C941B010C941B010C941B01F0
:100020000C941B010C941B010C941B010C941B01E0
:100030000C941B010C941B010C941B010C941B01D0
:100040000C94F40C0C941B010C941B010C941B01DC
:100050000C941B010C941B010C941B010C941B01B0
:100060000C941B010C941B010C941B010C941B01A0
:100070000C941B010C941B010C941B010C941B0190
:100080000C941B010C941B010C941B010C941B0180
:100090000C941B010C941B010C941B010C941B0170
:1000A0000C941B010C941B010C941B010C941B0160
:1000B0000C941B010C941B010C941B010C941B0150
:1000C0000C941B010C941B010C941B010C941B0140
:1000D0000C941B010C941B010C941B010C941B0130
:1000E0000C941B010C941B010C941B010C941B0120
:1000F0000C941B010C941B010C941B010C941B0110
:100100000C941B010C941B010C941B010C941B01FF
:100110000C941B010C941B010C941B010C941B01EF
:100120000C941B010C941B010C941B010C941B01DF
:100130000C941B010C941B010C941B010C941B01CF
:100140000C941B010C941B010C941B010C941B01BF
:100150000C941B010C941B010C941B010C941B01AF
:100160000C941B010C941B010C941B010C941B019F
:100170000C941B010C941B010C941B010C941B018F
:100180000C941B010C941B010C941B010C941B017F
:100190000C941B010C941B010C941B010C941B016F
:1001A0000C941B010C941B010C941B010C941B015F
:1001B0000C941B010C941B010C941B010C941B014F
:1001C0000C941B010C941B010C941B010C941B013F
:1001D0000C941B010C941B010C941B010C941B012F
:1001E0000C941B010C941B010C941B010C941B011F
:1001F0000C941B010C941B010C941B0111241FBEB9
:10020000CFEFD7E2DEBFCDBF10E2A0E0B0E2EAE37D
:10021000F2E202C005900D92A435B107D9F722E2AF
:10022000A4E5B0E201C01D92A73FB207E1F70E942A
:10023000F10B0C941B110C9400007F939F938093FF
:10024000060660932606809301066093210640937C
:1002500046064093410670E8709366067093610607
:100260009F917F9108957F939F9370912006909125
:1002700000067093EB229093EE227093F5229093F8
:10028000EF22782F70959091F52297239093F52285
:10029000762F70959091EF2297239093EF228827E5
:1002A0000000000000007091EF22709300069F9103
:1002B0007F9108957F939F934093200680934506F6
:1002C000000000000000E0920006000000000000B6
:1002D0002093000600932006809346069F917F910D
:1002E00008955F9350E850936106509365065F91BF
:1002F00008955F9350E8509366065091EE22509314
:1003000000060000000000005F910895A0E0B0E04A
:10031000ECE8F1E00C94E710C82F162FF8948091C8
:1003200071008D7F809371002C2F26952695269540
:1003300030E0220F331FF901EF5DFF4D8081880F00
:10034000880F880F8460809382038091710082609F
:1003500080937100275D3F4DD90111968C91618189
:100360000E943301F82ED0E0FE01EF5FFF4DB08018
:10037000DD24CC24C3941FC0812F6F2D4091F52222
:100380002091EF220091EB22E090EE220E945A0190
:100390008FB79091EC22892B8FBF809100208F5FC7
:1003A00080930020823030F0823021F0833011F0D1
:1003B000C0920020D394F894DB14F1F60E947101EE
:1003C00010926008109261081092780810927908D3
:1003D0008091410880618093410882E080934A08BF
:1003E00080E180934C088091870384FD1BC08FB708
:1003F0009091EC22892B8FBF08C08091600890916A
:100400006108B0E280309B07A0F480914C0884FF23
:10041000F4CF8091680890916908CC0FDD1FC15A14
:10042000DE4D0DC0CC0FDD1FC15ADE4D81E090E0E6
:1004300006C0CC0FDD1FC15ADE4D80E090E28883FC
:1004400099830E9479018FB79091EC22892B8FBFFD
:10045000CDB7DEB7E9E00C940011CF93C0E004C043
:100460008C2F0E948D03CF5F8091EA21C817C0F3C3
:1004700010925620109257200E949F06CF91089507
:10048000FC0181E095E28083918388E890E082839B
:10049000938380E095E0848395830895CF93C0E0B3
:1004A00004C08C2F0E948D03CF5F8091EA21C81772
:1004B000C0F3CF9108951092EA211092F62284E0C1
:1004C0008093572184E180935A2195E090935B219A
:1004D0001092592180935821E7E5F1E281E082935F
:1004E00083E086830E94BF0610925D2110925E21F8
:1004F00008951F93CF93DF931092E7211092E82184
:100500004091562050915720809356209093572029
:100510002091582030915920241B350B280F391F6A
:10052000C0E003C0285C3040CF5F283C3105D0F7E5
:1005300020935820309359208091E921882341F05D
:100540008C1718F41092E92103C08C1B8093E921C9
:100550000E94C706E0915D21F0915E21309709F07D
:10056000099510E0D0E006C08D2F6C2F0E94A003EB
:10057000182BDF5F5091EA21D517B0F3112349F012
:100580008091E7219091E82191608093E7219093F9
:10059000E8211092DF211092E0211092E1211092C7
:1005A000E221ABEEB1E240E081E090E018C02C9196
:1005B000287199F0E42FE695E695E695F0E0E15292
:1005C000FE4D242F2770BC0102C0660F771F2A95AD
:1005D000E2F79B013081322B30834F5F189645172D
:1005E00031F78091E7219091E821DF91CF911F9120
:1005F00008959091EA21E92FF0E033E0EE0FFF1F1C
:100600003A95E1F7E551FE4D438367708583868314
:100610002370660F660F660F262B24839F5F9093CF
:10062000EA210895A1E0B0E0E8E1F3E00C94EA10DB
:10063000082F10E063E0000F111F6A95E1F7F80141
:10064000E551FE4D6581438150E00090562102C086
:10065000559547950A94E2F7443008F444E09091A8
:10066000EA21891788F55BEEE52E51E2F52EE00EC2
:10067000F11EF7019481292F207C01F5862F4983F3
:100680000E940F064981242F30E04695469550E0A0
:10069000421B530B4817590724F4F70144814B7F41
:1006A0004483309521953F4F281739077CF0F80196
:1006B000E551FE4D24812460248308C09B7FF7010F
:1006C00094830E94E60802C080E090E02196E6E074
:1006D0000C940311E82FF0E083E0EE0FFF1F8A95E2
:1006E000E1F7E551FE4D2581368182E080838091DE
:1006F000E7219091E82182608093E7219093E8219F
:100700001282822F90E806C0E82FF0E0E65AFF4DF3
:1007100090838F5F3817C0F70895CF93C82F0E943A
:100720006A03EC2FF0E093E0EE0FFF1F9A95E1F7DC
:10073000E551FE4D81E080838FE08183CF91089564
:100740004F925F926F927F928F929F92AF92BF92E1
:10075000DF92EF92FF920F931F93CF93DF930F924D
:10076000CDB7DEB7182FE62E0E9412034C01A12E42
:10077000BB2463E0AA0CBB1C6A95E1F7F501E551C7
:10078000FE4D4481238130E0842F837090E00196F8
:10079000B90102C0759567958A95E2F7CB01623081
:1007A00008F482E0B901681B7109F501E551FE4DBD
:1007B0008081843009F4D4C0853030F4813071F008
:1007C000823009F019C257C0803109F45FC180320C
:1007D00009F4E8C1883009F00FC2B8C12091E721BF
:1007E0003091E8213260658176817F010894E11CB7
:1007F000F11C2BC0F7018081E62FF0E0DF01AA0F8A
:10080000BB1FA156BE4D8A3038F0EE0FFF1FE15AD4
:10081000FE4D8081918114C04D915C911197EE0F36
:10082000FF1FE15AFE4D808191818417950718F4CE
:10083000CA01019705C04817590730F4CA0101964B
:100840008D939C93119728606F5F761798F620938D
:10085000E7213093E821F501E551FE4D818181507A
:100860008183882319F4812F0E946A038091582183
:100870008093E921B9C142FF08C0A581B0E0A65A22
:10088000BF4D1C9280E28083A6C1C40197FE02C0C6
:1008900080E090E08217930738F0F501E551FE4DB6
:1008A00084E080831282A2C1EE2009F4A5C1809168
:1008B000E921882309F0A0C1F501E551FE4D25810C
:1008C000D68030915B21305800E8A02E80915A21CB
:1008D000A81A6091E7217091E82180E8882E39C03C
:1008E000422F50E0DA01AA0FBB1FA156BE4D8D91D9
:1008F0009C911197FA01EE0FFF1FE15AFE4D008106
:100900001181FA01E65AFF4D8017910740F44081AA
:100910004E0D40834317E0F0808201960AC008170D
:10092000190760F440814E194083A41688F0808234
:1009300001978D939C93119768600AC080818138DC
:1009400010F081508083808187FD02C08F5F80839B
:100950002F5FD21628F66093E7217093E8214CC1EF
:10096000C40197FE02C080E090E08217930708F46C
:1009700027C1809158218093E921F501E551FE4D71
:1009800082818F5F8283848190E08873907063E0BE
:10099000969587956A95E1F7D82E8823B9F549C0D1
:1009A000011791F1402E552443E0440C551C4A9503
:1009B000E1F76BEE71E2460E571EF201848190E082
:1009C0008873907053E0969587955A95E1F7D816FD
:1009D000D9F4802F29830E941203F2013381AC01E4
:1009E000431B5109F3018081B401681B71092981FE
:1009F0006417750734F0F2018081803111F088307E
:100A000019F4F701108221E00F5F0CC020E000E034
:100A100033E0632E712C6E0E7F1E7F0162E070E06A
:100A2000E60EF71E8091EA21081708F4B9CF2223B9
:100A300079F480915721882359F08091E721909192
:100A4000E82198608093E7219093E82101E001C0BC
:100A500000E0F501E551FE4D9281809157219817F4
:100A600008F4CBC02091E7213091E8212360209346
:100A7000E7213093E82180E1808311828481807CAA
:100A800009F4BBC0812F0E94DD09B7C02091E72186
:100A90003091E82142FF0EC0A581B0E0A65ABF4DBB
:100AA00080E88C9380E2808330612093E72130934B
:100AB000E82144C0C40197FE02C080E090E08617A0
:100AC000970758F4F501E551FE4D88E08083809149
:100AD000E7219091E82194602DC021602093E721C7
:100AE0003093E821F501E551FE4D82819091572127
:100AF000891710F48F5F8283F501E551FE4D8481E3
:100B0000807C19F0812F0E94150990915921992319
:100B1000B9F0F501E551FE4D8181891718F4E80E11
:100B2000E1820EC0812F0E948D038091E721909178
:100B3000E82192608093E7219093E82101E001C0D1
:100B400000E0809158218093E92157C0809158217D
:100B50008093E9218281882399F1C40197FE02C024
:100B600080E090E02091E7213091E8216817790733
:100B700060F4F501E551FE4D80E180832160209312
:100B8000E7213093E82100E006C034602093E7219C
:100B90003093E82101E0F501E551FE4D828181505D
:100BA00082832BC0A581B0E0A65ABF4D8C918F5F88
:100BB0008C9342FD09C087FF03C080E180831CC085
:100BC000812F0E946A0318C090915C21891770F0F0
:100BD000812F0E948D038091E7219091E8219061FF
:100BE0008093E7219093E82101E007C08091E721FD
:100BF0009091E8219460F4CF00E0802F0F90DF9176
:100C0000CF911F910F91FF90EF90DF90BF90AF9029
:100C10009F908F907F906F905F904F90089590E09D
:100C2000FC01B0962FE531E2EE0FFF1FE20FF31F3C
:100C3000DC01AA0FBB1FA20FB31F808191812D91F0
:100C40003C911197821B930B0895FF920F931F9372
:100C5000CF93DF93EC0110E01AC0E12FF0E083E0C6
:100C6000EE0FFF1F8A95E1F7E551FE4D8481807CF0
:100C700021F48581FE01099509C0F680058104C033
:100C8000802FFE0109950F5FF016D0F71F5F80914E
:100C9000EA21181710F3CDB7DEB7E5E00C94041184
:100CA000482F46954695469550E0440F551FDA016A
:100CB000A75DBF4D21E030E0B9010C9002C0660F86
:100CC000771F0A94E2F79091F022962B9093F022EE
:100CD0004F5D5F4DFA01008002C0220F331F0A945E
:100CE000E2F79091F122922B9093F1228770E82FF6
:100CF000F0E0EE0FFF1FEE0FFF1FEF5CFF4DA38133
:100D0000B0E0A051BD4D8C919281892B8C930895B8
:100D1000A82FA770B0E0AA0FBB1FAA0FBB1FAF5C24
:100D2000BF4DED91FC911197309719F012966C918F
:100D300009958FB79091EC22892B8FBF08950F935F
:100D400081E0809300201092F0221092F122109204
:100D5000F2221092F3221092F42280E596E00E9493
:100D600025068091F1226091F0224091F22220919B
:100D7000F3220091F4220E941D010F910895E1E0F9
:100D8000F0E280E290E491938150E9F70895A7E0C2
:100D9000B0E0EDECF6E00C94DE108FB78078809335
:100DA000EC2200E811E0F8013080E0E8F3E0208078
:100DB00040E4E42E48E0F42EF701208153E4C52EF0
:100DC00058E0D52EF60130816CE4A62E68E0B62EF0
:100DD000F501408170E6872E78E0972EF4010190AE
:100DE000F081E02DE983FA8381E7682E712CF3010D
:100DF000508192E8492E93E0592EF2016081E0E89B
:100E0000F3E08081806C808388E2F601808380E15A
:100E1000F801808382E0F7018083E0E8F3E08081DD
:100E200081608083F89488E896E02B833C834D832F
:100E30005E836F830E942506F8013082E0E8F3E0CC
:100E400020822B81F70120833C81F60130834D8184
:100E5000F501408389819A81F401808391835E81C9
:100E6000F30150836F81F20160838FB79091EC2280
:100E7000892B8FBF2796E2E10C94F710AF92CF92A7
:100E8000EF920F939C2DE091EA21F0E033E0EE0F1A
:100E9000FF1F3A95E1F7E551FE4D23832091F6229D
:100EA00027834770858366830370440F440F440F84
:100EB000042B0483E22FF0E09770E294EE0C40EEF6
:100EC000E4229E2953E0EE0FFF1F5A95E1F7E65802
:100ED000FF4D9083AA2011F0986090832F5F20939C
:100EE000F6220F91EF90CF90AF9008959C0161157D
:100EF000710521F14F5F03C04150220F331F37FDB1
:100F000006C04423C9F703C04F5F660F771F77FF02
:100F1000FBCF80E090E00BC0880F991F415026174F
:100F2000370718F0261B370B0196769567954423F3
:100F300039F097FFF1CF8FEF9FEF08958FEF9FEF7D
:100F40000895FB012381348146E0369527954A9523
:100F5000E1F7821B930B208123FF0CC081389105A0
:100F60001CF08050914008952FEF8038920714F4C0
:100F700080509F4F0895A0E0B0E0E1ECF7E00C94C2
:100F8000E910E82FF0E053E0EE0FFF1F5A95E1F76C
:100F9000E551FE4DA781B0E063E0AA0FBB1F6A9543
:100FA000E1F7A658BF4D0C910870C681D581DC2EA3
:100FB000DD1A1D2D1F5FED2EFF2414C08D2F0E9402
:100FC0000F06ED2FF0E0EE19FF09EE0FFF1FE656BA
:100FD000FF4D181619061CF48083918302C01082FD
:100FE0001182DF5FCD1750F760919A2050919B20BE
:100FF000ECE9F0E2A62FB52F40E021E008C0819196
:101000009191A817B90710F4DC01422F2F5F211727
:10101000B0F3442391F40023D1F0E12FF0E0EE0F80
:10102000FF1FE856FF4D2081318180919C209091D7
:101030009D208217930770F008C0E42FF0E0EE0FB8
:10104000FF1FE856FF4D2081318170E004C020E091
:1010500030E0FBCF71E04D1529F4002361F0862FBD
:10106000952F0BC0E42FF0E0EE0FFF1FE456FF4D6D
:101070008081918102C080E090E0772311F0D12F30
:1010800001C0D42FDD0FDD0F40E0C42F2817390732
:1010900078F0AD01481B590BBA01681B790B620F40
:1010A000731FCA014AE00E947607805094400AC02C
:1010B000821B930BBD01621B730B680F791F4AE003
:1010C0000E947607C80FD91F133078F0002321F053
:1010D000CE01612F70E005C0612F70E0615070405B
:1010E000CE0140E00E947607EC01CE0180709C7F2B
:1010F000009711F0CFEFD3E0002329F0D695C795E4
:10110000D695C79522C0C636D10518F0C656D04030
:1011100002C0C0E0D0E0BE0180E090E028E33FE9FB
:1011200040E050E00E94C310AB01BC01E1E17695C4
:10113000679557954795EA95D1F7C42FD52FCF3F9F
:10114000D10519F010F0CFEFD0E0CE01CDB7DEB76A
:10115000E7E00C940211AF92CF92EF920F93AA2482
:10116000A3940E943E079091EA21E92FF0E073E0FA
:10117000EE0FFF1F7A95E1F7E551FE4D8481806403
:1011800084839F5F9093EA210F91EF90CF90AF906F
:101190000895AF92CF92EF920F93AA240E943E0738
:1011A0009091EA21E92FF0E0A3E0EE0FFF1FAA954E
:1011B000E1F7E551FE4D8481806884839F5F9093C1
:1011C000EA210F91EF90CF90AF900895A0E0B0E0AA
:1011D000ECEEF8E00C94E810C82FD0E013E0CC0F50
:1011E000DD1F1A95E1F7C551DE4D0E81162FEE2455
:1011F000FF2450E0CC24DD24C41AD50A24960DC067
:10120000812F0E940F069C01C816D9061CF0888108
:1012100084608883E20EF31E1F5F011788F7C70101
:10122000CDB7DEB7E8E00C940111A0E0B0E0EBE14F
:10123000F9E00C94E910E82FF0E073E0EE0FFF1FE7
:101240007A95E1F7E551FE4DD7800E94BB077C01FE
:10125000CD2DD0E013E0CC0FDD1F1A95E1F7C65875
:10126000DF4DBE010E94A1079C0197FF03C030958E
:1012700021953F4F40E050E060E470E0CB01042E48
:1012800002C0969587950A94E2F78217930740F477
:101290008F81481710F4815001C08F5F8F8305C084
:1012A0004F5F5F4F4630510549F71881012F077096
:1012B000C701BE010E94A1074F812B813C811816F6
:1012C0001906A4F466E0880F991F6A95E1F702C039
:1012D000969587954A95E2F7820F931F8B839C839F
:1012E00013FF1AC09F738B839C8316C090958195C2
:1012F0009F4F56E0880F991F5A95E1F702C09695C7
:1013000087954A95E2F7281B390B2B833C8313FF03
:1013100003C03F732B833C8389819A81BE010E9465
:10132000A1072D8130E0281739071CF40E831D8298
:101330000AC02E8130E0309521953F4F82179307E8
:101340005CF41E820D838B819C8126E096958795A7
:101350002A95E1F789839A832D2D30E0F90183E006
:10136000EE0FFF1F8A95E1F7E658FF4D80818295C9
:10137000869587708F5F48E050E0481B5109818156
:10138000928102C0969587954A95E2F7F901ED5151
:10139000FE4D208130E02817390751F0808380917D
:1013A000E7219091E82184608093E7219093E821E0
:1013B000CDB7DEB7E7E00C940211CF93E82FF0E051
:1013C00093E0EE0FFF1F9A95E1F7E551FE4DC781BF
:1013D0000E94BB07EC2FF0E023E0EE0FFF1F2A95E1
:1013E000E1F7E658FF4D20812770818392832683A1
:1013F0002583178236E0880F991F3A95E1F783839A
:101400009483CF910895E1E6F6E030E1308320E265
:10141000208390E8908380E480936206E6E6F6E01D
:10142000308320839083809365060895CF93DF9364
:1014300028E030E0E6E6F6E050E2A5E6B6E090E827
:10144000C8E6D6E0882314F45C9301C05083880F6B
:1014500000C000C09C9300C000C0488146FB4427E8
:1014600040F9842B90832150310961F790E29093E9
:10147000660692E49A95F1F700C0DF91CF91089546
:101480000F931F93CF93DF9303E511E2C0E0D0E009
:10149000F80181918F010E94160A0E945D10219629
:1014A00020915421309155212C173D0788F788232E
:1014B00039F080E00E94160A0E945D108111F9CF78
:1014C000DF91CF911F910F910895392FE0ECF1E05A
:1014D00027852223ECF3E0ECF1E0978591FF10C023
:1014E00096E39287EF93FF930F932F93EBECF1E04A
:1014F00008ED21E004BF20832F910F91FF91EF9120
:10150000E0ECF1E093E392878083832F90E08F718A
:10151000992781831282648385E38287EF93FF9307
:101520000F932F93EBECF1E008ED21E004BF208353
:101530002F910F91FF91EF9187858823ECF3089508
:10154000392FE0ECF1E027852223ECF3E0ECF1E029
:101550008083832F90E08F7199278183128286E0A8
:101560008287EF93FF930F932F93EBECF1E008ED5D
:1015700021E004BF20832F910F91FF91EF9184818F
:101580000895CF93DF9380E090E10E94A00AC82FD6
:10159000D0E081E090E10E94A00A382F20E02C2BBF
:1015A0003D2B822F932FDF91CF910895CF93C92F99
:1015B000682F80E090E10E94650A6C2F81E090E145
:1015C0000E94650ACF9108956091562182E090E1D2
:1015D0000E94650A6091572183E090E10E94650AAC
:1015E0006091582184E090E10E94650A6091592140
:1015F00085E090E10E94650A60915A2186E090E1C1
:101600000E94650A60915B2187E090E10E94650A73
:1016100060915C2188E090E10E94650A0895FF9244
:101620000F931F93CF93DF938091EA21882319F1C1
:10163000F12CCF2DD0E08E01000F111F000F111FD4
:10164000000F111F05511E4DCE01880F991FF80183
:101650006381875F9F4E0E94650ACE018B5F974F23
:10166000F8016481880F991F0E94650AF3948091A4
:10167000EA21F816F0F2DF91CF911F910F91FF90C0
:101680000895EF92FF920F931F93CF93DF930091F2
:10169000EA2110E0000F111FC1E0D0E20F2EF1E2AD
:1016A000EF2EF0E2FF2EF02D095F1F406991C80177
:1016B0008C0F9D1F0E94650ACE15DF05B9F7DF91DB
:1016C000CF911F910F91FF90EF900895EF92FF92AD
:1016D0000F931F93CF93DF9382E090E10E94A00AC3
:1016E0008093562183E090E10E94A00A80935721C5
:1016F00084E090E10E94A00A8093582185E090E167
:101700000E94A00A8093592186E090E10E94A00ADD
:1017100080935A2187E090E10E94A00A80935B2188
:1017200088E090E10E94A00A80935C210091EA2168
:10173000002319F1F12CCF2DD0E0CE01880F991F95
:10174000875F9F4E0E94A00A8E01000F111F000F9D
:10175000111F000F111F05511E4DF8018383CE018B
:101760008B5F974F880F991F0E94A00AF80184830E
:10177000F3940091EA21F016F0F210E0000F111F2F
:10178000C1E0D0E20F2EF1E2EF2EF0E2FF2EF02DBD
:10179000085F1F40C8018C0F9D1F0E94A00A8993FB
:1017A000CE15DF05B9F7DF91CF911F910F91FF9013
:1017B000EF90089528EE33E0AC01429FC001439FB3
:1017C000900D529F900D1124E0E0F8E086A397A3BE
:1017D00008950F931BBEFC0108ED04BF60830F91B9
:1017E0000895E0E5F0E08081826080836CE081E430
:1017F00090E00E94E90BE0E5F0E0818181FFFDCF00
:1018000060914000687F616080E490E00E94E90B95
:1018100023E04AE061E080E00E94F90223E04AE030
:1018200061E081E00E94F90223E04AE061E082E0A9
:101830000E94F90223E04AE061E083E00E94F9029D
:1018400023E04AE061E084E00E94F90223E04AE0FC
:1018500061E085E00E94F90223E04AE061E086E071
:101860000E94F90223E04AE061E087E00E94F90269
:10187000C12C0F2EF7E0EF2EF02D03E020E140E029
:101880006BE088E00E94AB0820E140E06FE08CE074
:101890000E94C90823E04AE061E080E10E94F90269
:1018A00023E04AE061E081E10E94F90223E04AE09E
:1018B00061E082E10E94F90223E04AE061E083E115
:1018C0000E94F90223E04AE061E084E10E94F9020B
:1018D00023E04AE061E085E10E94F90223E04AE06A
:1018E00061E086E10E94F90223E04AE061E087E1DD
:1018F0000E94F90223E04AE061E088E10E94F902D7
:1019000023E04AE061E089E10E94F90223E04AE035
:1019100061E08AE10E94F90223E04AE061E08BE1A4
:101920000E94F90223E04AE061E08CE10E94F902A2
:1019300023E04AE061E08DE10E94F90223E04AE001
:1019400061E08EE10E94F90223E04AE061E08FE16C
:101950000E94F9020E942D0274E07093572184E1E5
:1019600080935A2195E090935B21109259218093A6
:10197000582161E06093562183E080935C2140917F
:1019800051205091522028EE33E0429FC001439FE6
:10199000900D529F900D1124E0E0F8E086A397A3EC
:1019A00070836783E0EAF0E0828181608283109235
:1019B0005D2110925E210E94390D78940E940F0ED5
:1019C0008091AC20882369F01092AC208091AA20ED
:1019D0009091AB200E947902EC010E949F0FD0FDF4
:1019E000F5CF0E940F0EECCF1F920F920FB60F9201
:1019F00011242F933F938F939F9381E08093AC208A
:101A00002091AA203091AB208091512090915220BA
:101A1000820F931F8093AA209093AB209F918F9168
:101A20003F912F910F900FBE0F901F901895CF935D
:101A3000C82F8BE10E942C101092B72080E00E94EA
:101A40002C108C2F0E942C108091B9208F5F8F70EA
:101A50008093B9209091B82020E1929F800D1124AD
:101A60000E942C10CF9108958091B7200E942C10D5
:101A700008950E94030A8FEB90E20E9440020E94A8
:101A80001B100E94C10A2091C3203091C420281746
:101A9000390719F40E94660B0895C9010E94D60AFD
:101AA0000E94E40A0E940F0B0E94410B089580934C
:101AB000B1209093B2206093B3207093B4204093F0
:101AC000AF205093B0200895FF920F931F93CF93B0
:101AD000DF930E944010C82F0E9440103C2F20E04E
:101AE000E901C82B0E944010182F0E944010712F4E
:101AF00060E08B01082B0E944010F82E0E944010DD
:101B00005F2D40E0482BB801CE010E94570DDF91B8
:101B1000CF911F910F91FF9008950E9440108093E4
:101B200056210E944010809357210E9440108093BC
:101B300058210E944010809359210E9440108093A8
:101B40005A210E94401080935B210E944010809394
:101B50005C210E94401010925120809352200E94DC
:101B600040102091512030915220A901482BCA01E8
:101B700080935120909352200E94DA0B0E94E40A35
:101B80000895CF93DF930E944010C82FD0E00E94A9
:101B90004010CC0FDD1FCC0FDD1FCC0FDD1FC5515A
:101BA000DE4D8B830E9440108B739C81947C892B2B
:101BB0008C830E940F0BDF91CF9108950F931F9399
:101BC000CF93DF93C1E0D0E201E210E20E94401027
:101BD0008993C017D107D1F70E94410BDF91CF91B4
:101BE0001F910F9108950F931F93CF93DF938C0153
:101BF000C091CA20D0E0CE0104960E94170D209714
:101C000039F0F80181918F010E942C102197C9F7BA
:101C10000E94340DDF91CF911F910F9108950E9482
:101C20004F10882329F10E944010833189F028F455
:101C3000813141F08231B1F408C0843161F08531E5
:101C400089F40CC00E94640D0DC00E948D0D0AC065
:101C50000E94C10D07C00E94DE0D04C080E090E02C
:101C60000E94F30D1092C9201092C7201092C82034
:101C7000089585E090E00E94170D80E20E942C10EC
:101C80000E94340D089582E190E00E94170D81E2D8
:101C90000E942C1088E390E00E94361085E00E949C
:101CA0002C1081E00E942C1082E00E942C10809168
:101CB000BF200E942C108091C3209091C4200E94CC
:101CC000361080E090E00E94361080E20E942C10D6
:101CD0008091B5209091B6200E9436100E94340D5C
:101CE000089581E190E00E94170D82E20E942C107D
:101CF000809156210E942C10809157210E942C1017
:101D0000809158210E942C10809159210E942C1002
:101D100080915A210E942C1080915B210E942C10EE
:101D200080915C210E942C10809151209091522032
:101D30000E94361084EF91E00E94361080E00E94ED
:101D40002C100E94340D08951F93CF93DF93809140
:101D5000EA2190E0880F991F880F991F06960E942C
:101D6000170D83E20E942C1081E00E942C108091BC
:101D7000EA218823E1F010E0C12FD0E0CC0FDD1F75
:101D8000CC0FDD1FCC0FDD1FC551DE4D8B810E94B6
:101D90002C108C810E942C108D810E942C108E8121
:101DA0000E942C101F5F8091EA21181728F30E94CF
:101DB000340DDF91CF911F910895EF92FF920F9311
:101DC0001F93CF93DF9385E490E00E94170D84E288
:101DD0000E942C10CFE5D1E20F2EFFE9EF2EF1E2A9
:101DE000FF2EF02D8E0189810E942C102296F80181
:101DF00080810E942C10CE15DF05A1F70E94340DC2
:101E0000DF91CF911F910F91FF90EF900895EF9286
:101E1000FF920F931F93CF93DF9385E490E00E948E
:101E2000170D85E20E942C10CFE9D1E20F2EFFEDB5
:101E3000EF2EF1E2FF2EF02D8E0189810E942C10F1
:101E40002296F80180810E942C10CE15DF05A1F7A3
:101E50000E94340DDF91CF911F910F91FF90EF9071
:101E60000895CF93DF938091EA2190E0880F991F26
:101E700005960E94170D86E20E942C108091EA219F
:101E8000882381F0C0E08C2F0E941203D82F892F65
:101E90000E942C108D2F0E942C10CF5F8091EA2180
:101EA000C81788F30E94340DDF91CF9108950F93E6
:101EB0001F93CF93DF938FE090E00E94170D87E28E
:101EC0000E942C1080E20E942C1084E00E942C10B2
:101ED000CFEDD1E203EE11E289910E942C10C017E0
:101EE000D107D1F7C3EED1E207EE11E289910E944A
:101EF0002C10C017D107D1F70E94340DDF91CF917C
:101F00001F910F9108950F931F93CF93DF9385E255
:101F100090E00E94170D88E20E942C10C1E0D0E2F0
:101F200001E210E289910E942C10C017D107D1F76D
:101F30000E94340DDF91CF911F910F910895209150
:101F4000B8202F5F2F702093B8209C012670332774
:101F5000232B49F02091AD203091AE2020642093B6
:101F6000AD203093AE2083FF09C08091AD209091C9
:101F7000AE2080618093AD209093AE202091B1205F
:101F80003091B2208091AF209091B020282B392B36
:101F90004091B3205091B4208091AD209091AE201B
:101FA00084239523822B932B8093B5209093B62086
:101FB00080FD0E94430E8091B52081FD0E94710E2C
:101FC0008091B52082FD0E94A40E8091B52083FDF2
:101FD0000E94DD0E8091B52084FD0E94070F809144
:101FE000B52086FD0E94570F8091B52085FD0E9487
:101FF000310F8091B52087FD0E94830F8091B5201D
:102000009091B620892B11F40E94390E1092B120C4
:102010001092B2208091B5209091B6208095909535
:102020002091AD203091AE20822393238093AD2068
:102030009093AE200895E9ECF0E283E591E21192ED
:10204000E817F907E1F710925421109255211092E8
:10205000C7201092C82008959091B7209827909398
:10206000B720809353210E94400A0895CF93C82F30
:10207000892F0E942C108C2F0E942C10CF91089534
:102080002091C7203091C820F901E753FF4D80818E
:102090002F5F3F4F2093C7203093C8200895809131
:1020A000C9208B3141F484E090E08093C720909365
:1020B000C82081E0089580E00895482F9091BA20CB
:1020C000913069F030F0923091F0933009F053C0C4
:1020D00026C081E04B3109F453C080E051C08093A9
:1020E000CA201092BB208093BC2082E049C080931C
:1020F000CB202091BB203091BC20C901842B809340
:10210000BB209093BC2004978B309140B0F583E0C6
:1021100090E08093BD209093BE2083E031C0209159
:10212000BD203091BE20F901E753FF4D808380919F
:10213000BB209091BC2028173907A9F4211531053F
:1021400069F0EAECF0E281E090E040E0519145274F
:10215000019628173907D0F7411111C08BE1809300
:10216000C92080E00DC02F5F3F4F2093BD203093EA
:10217000BE2083E005C080E003C080E001C080E0B5
:102180008093BA200895DB018F939F930E94D31010
:10219000BF91AF91A29F800D911DA39F900DB29F03
:1021A000900D112408950E940F11A59F900DB49FCA
:1021B000900DA49F800D911D112408952F923F92A0
:1021C0004F925F926F927F928F929F92AF92BF9247
:1021D000CF92DF92EF92FF920F931F93CF93DF93F3
:1021E000CDB7DEB7CA1BDB0BCDBFDEBF09942A8893
:1021F000398848885F846E847D848C849B84AA841B
:10220000B984C884DF80EE80FD800C811B81AA81A7
:10221000B981CE0FD11DCDBFDEBFED010895A29FC4
:10222000B001B39FC001A39F01D0B29F700D811D6B
:0A2230001124911D0895F894FFCFCA
:10223A0001404040404040404040404040404040D3
:10224A004040404040404040404040404040404084
:10225A004000010102020403080001010202040312
:10226A00088601010286010202860104028601082B
:10227A000286011002860120028601400286018040
:04228A000219000035
:00000001FF
